:100000004CC0000066C00000B4C5000062C0000023
:1000100060C000005EC00000AFC400005AC0000015
:1000200058C0000056C0000054C0000052C000007C
:1000300050C000004EC000004CC000004AC000008C
:1000400048C0000046C0000044C0000042C000009C
:1000500040C000003EC000003CC000003AC00000AC
:1000600038C0000036C00000FF62002500FFFF001E
:10007000000000013C0500509E4B0002162B124F61
:100080006280FFFF2A32C31F1EFF00FF00003B00FB
:100090001747800301451800010F11241FBECFEF41
:1000A000D8E0DEBFCDBF11E0A0E0B1E0E0E3F5E1D4
:1000B00002C005900D92A234B107D9F722E0A2E464
:1000C000B1E001C01D92A236B207E1F7ACD50C94A5
:1000D000960A96CF559898E080E0880F4D998160F8
:1000E0005C9A00005C989150C1F7559A089598E089
:1000F00080E0880F4E9981605C9A00005C98915076
:10010000C1F708955C985D9898E087FF02C05D9AFA
:1001100001C05D985C9A880F5C989150B1F75D9A28
:100120000895289880E5EEDF83E7ECDF289A0895AC
:100130002898E8DF289A0895CF93DF931F92CDB7D0
:10014000DEB728988F7180626983DCDF6981862F32
:10015000D9DF289A0F90DF91CF910895CF93DF9345
:100160001F92CDB7DEB7299880686983CBDF69819C
:10017000862FC8DF299A0F90DF91CF910895CF93F2
:10018000DF931F92CDB7DEB75F986983BBDF0000B6
:100190006981862FB7DF5F9A0F90DF91CF91089525
:1001A000EFB7F8942091840030918500EFBF8091E3
:1001B000A90190E04091AA015091AB01841B950BDD
:1001C000820F931F482F41704093A9019695879500
:1001D0004091A5015091A6016091A7017091A801DD
:1001E000F894480F591F611D711D4093A50150934C
:1001F000A6016093A7017093A8013093AB012093EF
:10020000AA01EFBF2091A3013091A401820F931F97
:1002100080382EE3920720F080589E4320E101C0F1
:1002200020E080343FE1930718F0285F80549F411D
:10023000803A3FE0930718F02C5F805A9F40803D42
:1002400037E0930718F02E5F805D9740883E33E0DB
:10025000930718F02F5F885E93404091D80150912A
:10026000D9016091DA017091DB01420F511D611DCE
:10027000711D4093D8015093D9016093DA017093B6
:10028000DB019093A4018093A3016091A50170917B
:10029000A6018091A7019091A8010895CF92DF92C5
:1002A000EF92FF92CF93DF936B017C0179DFEB013B
:1002B000C114D10461F074DF6C1B7D0B683E734088
:1002C000B8F381E0C81AD108C851DC4FF1CFDF91F3
:1002D000CF91FF90EF90DF90CF9008955A9812DF62
:1002E0005A9A08951F93CF93DF9380EFF7DF5A98C0
:1002F00085E408DFCAE3D2E01C2F1B5DEBDE8993A7
:100300001C13FCCF5A9ADF91CF911F9108955A98F0
:100310008064F8DEDFDE5A9A0895CF93DF931F9250
:10032000CDB7DEB75A986983EDDE00006981862F6C
:10033000E9DE5A9A0F90DF91CF91089563E38BE045
:10034000ECDF61E38CE0E9CFCF92DF92EF92FF9296
:10035000CF938091F201882309F440C08091350247
:1003600086FF3CC0A5E1B2E020E030E0F894F9015E
:10037000EE0FFF1FED50FE4F808191817894883EF3
:1003800043E0940738F0813D47E0940728F080ED82
:1003900097E002C088EE93E08D939D932F5F3F4FCF
:1003A0002031310519F7809135028F7B809335021A
:1003B00080913602806280933602F2DE8091D8010D
:1003C0009091D901A091DA01B091DB01809378017D
:1003D00090937901A0937A01B0937B01EDE1F2E073
:1003E00080E090E020E041E050E0619171916F3059
:1003F000764038F0BA01082E01C0660F0A94EAF779
:10040000262B01968830910581F720937701C091C2
:100410003602C5FF1DC0C4DE8091D8019091D9017C
:10042000A091DA01B091DB014091780150917901FE
:1004300060917A0170917B01841B950BA60BB70B21
:1004400087349105A105B10518F0CF7DC093360220
:10045000C090D401D090D501E090D601F090D701A2
:100460009FDE8091D8019091D901A091DA01B091DD
:10047000DB01C816D906EA06FB0608F04FC08091DA
:10048000360285FD1AC08091F201811107C044EF48
:10049000C40E41E0D41EE11CF11C06C088EEC80E5B
:1004A00083E0D81EE11CF11CC092D401D092D5018A
:1004B000E092D601F092D7012DC080913702909141
:1004C0003802892B79F42D9B07C038EEC30E33E038
:1004D000D31EE11CF11CE8CF42E3C40ED11CE11C89
:1004E000F11CE2CF8091350287FD2D988091D401D7
:1004F0009091D501A091D601B091D7018C599F4F11
:10050000AF4FBF4F8093D4019093D501A093D601F4
:10051000B093D70195B180E2892785B9CF91FF903B
:10052000EF90DF90CF9008950F931F93CF93DF93B9
:10053000182F5A9880EEE6DD85E0E4DDCAE3D2E0CC
:100540000C2F0A5D8991DEDD0C13FCCF5A9A809145
:100550003902813019F080EAC1DEF0DE612F8FE0D0
:10056000DCDE80EDDF91CF911F910F91B7CECF935D
:100570008091B0019091B101A091B201B091B3010D
:1005800080933B0290933C02A0933D02B0933E02C5
:100590008FEF9FEFDC0180933F0290934002A09386
:1005A0004102B093420210924402A5E4B2E0E5EBAE
:1005B000F1E080E18E0F91919D938E13FCCF4AE084
:1005C00050E06FEF70E085E592E0A9D710925F02EE
:1005D000C091D101CC2319F0C43068F507C08BEB72
:1005E00080933A0281E08093430225C08CEB809394
:1005F0003A02C330B9F48091CD019091CE01A0911F
:10060000CF01B091D00180933F0290934002A0931C
:100610004102B093420240E150E06FEF70E085E4A8
:1006200092E07DD7C150C093430281E08093550290
:1006300080E880935602CF910895EF92FF920F9336
:100640001F93CF93DF93C091D101C43009F497C0B9
:1006500020F4C33008F06DC00CC0C03808F483C16A
:10066000C33808F448C0C43809F07DC199DDEB01F6
:1006700062C17DDFD091D301D0FD02C08CE801C002
:100680008DE052DF80E043DE807671F52BDE8091D5
:100690003A028C3B49F580914302813029F5C091A3
:1006A000E901CC0FCC0FCE5C3DECE32E31E0F32E14
:1006B00000E010E0D0E0F801E65CFD4F6581F70155
:1006C00061937F01C8018C0F9D1F9BD60F5F1F4F49
:1006D0000430110581F783E08093D1018091D3012B
:1006E0008F5F8093D3013FC1DF5FD093D301C06898
:1006F000C093D1011DC154DD8B0152DD601B710B14
:100700006C3B724020F480E002DE80FDF6CF61E3B6
:100710008BE003DE63E38CE000DE80ECDFDDCF778F
:10072000CF5FC33018F4C093D1011AC11092D10128
:1007300017C11DDFC091D301C0FD02C08CE801C00C
:100740008DE0F2DECF5FC093D3018091D2018F5F45
:100750008093D201843008F406C11092A201109255
:10076000A1011092A00181E08093CC0184E08093EC
:10077000D10180913502806880933502F4C0809168
:10078000A0014091B0015091B1016091B20170910E
:10079000B30140933B0250933C0260933D0270933F
:1007A0003E024091CD015091CE016091CF017091F8
:1007B000D00140933F0250934002609341027093F6
:1007C0004202813071F150F0823009F06BC086E551
:1007D00080933A0280E090E02FEF19C088E5809383
:1007E0003A02A6E0B1E080E090E0ED91F0E0EE0F9B
:1007F000FF1FEB5EFD4F30812181FC01E65CFD4F68
:100800003187228702968C31910579F74BC0FC0124
:10081000E65CFD4F2187228702968C319105B9F75E
:1008200041C08AEA80933A028DEF809343028FEFB2
:10083000809344028091E8018F7725E0829FC00178
:1008400011249C012E5C3F4F8F35914010F022E324
:1008500030E020934502309346028091EA01982FC0
:100860009D7F913019F49093470202C01092470285
:1008700010924802E9E4F2E02FEF96E19E0F2193F7
:100880009E13FDCF95E090934C022CED20934D02EA
:1008900090934E028250823010F48DED01C08EEDA7
:1008A00080934F0210925F0280E031DD182FE091BB
:1008B000CC01C1E0CE0FC093CC01F0E0EB54FE4F71
:1008C000808132DEC03110F01092CC01C091A101C4
:1008D000D091A201CE0161E275E00DD6892B11F411
:1008E00081E007C0CE0161E276E005D6892B21F4D4
:1008F00082E08093A00102C01092A00180E007DD99
:10090000807671F410FD0CC0EDDC80913A028A3AD9
:1009100039F4809143028C3F19F481E08093A00167
:100920002196D093A201C093A10184E88093D101C4
:1009300084EA96E01AC034DC6C1B7D0B6C3B724081
:1009400020F480E0E4DC80FDF6CF61E38BE0E5DCC1
:1009500063E38CE0E2DC80ECC1DC84E08093D101D5
:1009600086E698E002C08AE09FE0DF91CF911F9178
:100970000F91FF90EF9008951F920F920FB60F9274
:1009800011242F933F934F935F936F937F938F9394
:100990009F93AF93BF93EF93FF9380919F019091AB
:1009A0008400E82FF0E0E158FE4F90838F5F809342
:1009B0009F01803208F4CCC0EFE7F1E020E22E0F77
:1009C0008091AC019091AD01A091AE01B091AF01C9
:1009D0003191830F911DA11DB11D8093AC019093A6
:1009E000AD01A093AE01B093AF018091AC019091A5
:1009F000AD01A091AE01B091AF014091AC01509119
:100A0000AD016091AE017091AF013AE0880F991F7E
:100A1000AA1FBB1F3A95D1F7840F951FA61FB71FBA
:100A20008093AC019093AD01A093AE01B093AF0160
:100A30008091AC019091AD01A091AE01B091AF0158
:100A40004091AC015091AD016091AE017091AF0148
:100A500036E0B695A795979587953A95D1F784276F
:100A60009527A627B7278093AC019093AD01A0935B
:100A7000AE01B093AF012E13A3CF8091AC01909142
:100A8000AD01A091AE01B091AF014091AC01509188
:100A9000AD016091AE017091AF0123E0880F991F05
:100AA000AA1FBB1F2A95D1F7840F951FA61FB71F3A
:100AB0008093AC019093AD01A093AE01B093AF01D0
:100AC0008091AC019091AD01A091AE01B091AF01C8
:100AD0004091AC015091AD016091AE017091AF01B8
:100AE0003BE0B695A795979587953A95D1F78427DA
:100AF0009527A627B7278093AC019093AD01A093CB
:100B0000AE01B093AF018091AC019091AD01A09185
:100B1000AE01B091AF014091AC015091AD01609137
:100B2000AE017091AF01EFE0880F991FAA1FBB1FA4
:100B3000EA95D1F7840F951FA61FB71F8093AC01CC
:100B40009093AD01A093AE01B093AF0110926000FD
:100B5000FF91EF91BF91AF919F918F917F916F9195
:100B60005F914F913F912F910F900FBE0F901F906B
:100B7000189578941F920F920FB60F9211242F930D
:100B80003F934F935F938F939F93EF93FF93409186
:100B900084005091850080917D0190917E019A01A1
:100BA000281B390BC901883E33E0930720F481E00C
:100BB0008093000127C0893E22E1920770F0809166
:100BC0007C0184302CF08091350280648093350262
:100BD00010927C011092000115C02091000121119A
:100BE00011C020917C0196958795E22FEE0FFF0BA7
:100BF000ED50FE4F9183808381E0820F80937C01D2
:100C00002031ACF650937E0140937D01FF91EF912E
:100C10009F918F915F914F913F912F910F900FBEB8
:100C20000F901F901895789414B817B81AB8559A61
:100C3000549A529A579A3D9A219A209A399A3A9AF6
:100C4000519A2A9A2B9A2C9A409A2D9A10928000A7
:100C500082E080938100F89414BE809160008061EE
:100C60008093600080E48093600078945A9A5F9A41
:100C7000299A289A5D9A5C98E5E1F2E08CED95E07E
:100C80008193919322E0E533F207D1F7809113022B
:100C90009091140290931A028093190280E2E5E188
:100CA000F2E0A3EFB1E001900D928A95E1F764E6DE
:100CB00070E080E090E0F2DA1D9905C08091350285
:100CC00080628093350283B182FB882780F991E0AE
:100CD00089271B9902C092E001C090E0890F1C99FE
:100CE00002C094E001C090E0890F309902C098E002
:100CF00001C090E0980F9093F2012D98259A5F988B
:100D000080E300DA5F9A61E070E080E090E0C6DAAC
:100D10006FE282E034DA6FE280E031DA5F988EE8E9
:100D2000F1D9E5D95F9A60E080E0F7DA61E070E040
:100D300080E090E0B3DA63E38BE0EFDA63E38CE02A
:100D4000ECDA80E1E4DA80EAC9DA459ACAE8D1E06F
:100D5000CE010197F1F74598CE010197F1F761E0D7
:100D60008DE1FCD98AE193E00197F1F760EC8CE02A
:100D7000F5D964E08DE0F2D964E28FE0EFD960E06C
:100D80008EE0ECD9299880E1BDD9B1D9299AC9D989
:100D900060E08CE1D1D960E08DE1CED9C2D981EE9D
:100DA000C7D982EEC5D98FEFC3D9289887E0AAD9D1
:100DB0009ED9289A68E080E0BFD92197F1F764E6D0
:100DC00070E080E090E06ADA8DEF8093010180911D
:100DD000AC019091AD01A091AE01B091AF01892B12
:100DE0008A2B8B2BA1F36091AC017091AD018091A6
:100DF000AE019091AF01611571058105910509F072
:100E0000EFD284E190E0F5D2803FE1F4CDE0D0E094
:100E100080E090E0DC01CC24D82EE92EFA2ECE0121
:100E2000E8D2A7019601282BDA01C9012197C93020
:100E3000D10589F7873A31E4930731EDA3073AE208
:100E4000B30759F5CAD24B015C01C7D2C2E04C2EA0
:100E500055245394652C752CA3019201E0D27B019B
:100E6000DD24CC24C501B401A3019201D8D2C60E61
:100E7000D71EE81EF91ECAE0D0E06C2DCE01C1D20B
:100E8000CD2CDE2CEF2CFF242196CE30D105A9F7F6
:100E900060EF84E190E0B5D202C06C017D01C092A8
:100EA000EE01D092EF01E092F001F092F101609139
:100EB000F201662309F4CCC1EFEFE60FF0E0AF01D9
:100EC000440F551F9A012E0F3F1FD901AC5EBE4F34
:100ED0009C91892F8F73809339028093EC019295B6
:100EE00096959695937011968C9111978170880FB5
:100EF000880F982B9093EA01E901CB5EDE4F988131
:100F0000892F86958F708093E90112962C912093FA
:100F1000E80195FF05C090913502946090933502E9
:100F2000E40FF51FEB5EFE4F908196FF05C0909198
:100F300035029061909335026093F2012CE637E020
:100F40003093E7012093E6012CE434E0309314025F
:100F50002093130220ED37E03093E5012093E40164
:100F600028EE33E03093E3012093E201109238023F
:100F700010923702A7019601280F311D411D511D06
:100F8000DA01C9012093DC013093DD014093DE01D9
:100F90005093DF01B093B001A093B1017727652F83
:100FA000542F432F4093B2018093B301407F8F7041
:100FB000842B8093B401F4D88091D8019091D90109
:100FC000A091DA01B091DB018093D4019093D50117
:100FD000A093D601B093D7018091350285FF03C05D
:100FE0008061809335028091350284FF02C08F7743
:100FF00001C0806880933502419A429880913902FD
:101000008C3109F008C141985A9886E07BD884E574
:1010100079D885E777D885EC75D88AE273D85A9A5B
:10102000C0E0D0E0FE01E859FF4F64916F3F11F03E
:101030008C2F73D92196C233D105A1F780EA4ED9FE
:1010400061E082E06AD982E062D98111FCCFC0916F
:101050003902C23031F063E184E25FD96BE386E2AA
:101060005CD960E08FE059D962E082E056D982E035
:101070004ED98111FCCF60EA8FE04FD962E082E067
:101080004CD982E044D98111FCCFC23039F0C13053
:1010900011F06AE001C068E085E23FD94FD9D091F4
:1010A0003502D7FF04C0D2FD04C0C4E003C0C0E0D5
:1010B00001C0CFE1D3FDC0E0809101018C1729F080
:1010C0006C2F88E22AD9C093010180EA07D9809069
:1010D000DC019090DD01A090DE01B090DF01750190
:1010E0006401C0E068EA462E512C612C712C05EB9E
:1010F00011E0A70196016DE076E689E190E0ECD180
:101100006B017C0131EAC31A3CE0D30A31E9E30AFE
:1011100033ECF30AC701B6010C2E04C096958795EF
:10112000779567950A94D2F7A3019201A4D191E033
:10113000960FA5019401292720FF04C1E5EBF1E0FA
:1011400020E030E040E050E08E2F801B8C1790F4C0
:101150008191891709F4F6C08B3210F45F5FF4CFE8
:10116000863510F44F5FF0CF813810F43F5FECCF3D
:101170002F5FEACFE82F8C13E5C09B3210F4553077
:1011800078F056ED560F5B3210F4453048F0655557
:101190006B3210F4353020F0913838F0253028F4D7
:1011A0008F5FF0E0EB54FE4F9083803110F4C82F36
:1011B000A0CF1092D3011092D201D4FF03C010929D
:1011C000D10119C084E08093D101C091E901CC0F15
:1011D000CC0FCE5C0DEC11E0D0E0CD5CD14054E002
:1011E000F52EF00ECE01800F911F03D1F8018193EF
:1011F0008F01FE12F7CF1092CC018DE193E0909316
:101200003802809337026EE270E080E090E046D8CA
:1012100080E59BE002C080E090E0F894209184009B
:1012200030918500880F991F820F931F909389003A
:1012300080938800789482E086BB809135028F7D10
:101240008093350280916900886080936900E99AF3
:101250002091E6013091E7018091130290911402F0
:10126000820F931F9093E1018093E0018FEF9FEF36
:1012700012E0C0913702D0913802209781F0813975
:10128000914068F4B19B0FC0F894809184009091D4
:1012900085009093890080938800789406C054D884
:1012A0002097E9F3EFCFB19BFECF80913602982FC4
:1012B00098609093360285FF07C0E0913702F09165
:1012C00038020995EC0102C0C0EDD7E080913602EA
:1012D000877F80933602C13A2FE0D207B8F0C05D15
:1012E000D740F89480918800909189008056904F63
:1012F000909389008093880016BB789425D88091BC
:10130000350281FD03C0B19BFECFE5CFF8948091FB
:10131000880090918900CC0FDD1FC80FD91FD09392
:101320008900C093880016BB809188009091890045
:101330002091840030918500821B930B789497FD57
:10134000B4CF97CF8C2F33CF8F929F92AF92BF9213
:10135000CF92DF92EF92FF92CF93DF93EC016881FF
:1013600079818A819B81611571058105910521F43F
:1013700064E279ED8BE597E02DE133EF41E050E059
:101380004ED049015A019B01AC01A7EAB1E463D0F8
:101390006B017C01ACEEB4EFA501940168D0DC01D7
:1013A000CB018C0D9D1DAE1DBF1DB7FF03C0019766
:1013B000A109B04888839983AA83BB83BC01CD016E
:1013C0009F77DF91CF91FF90EF90DF90CF90BF900C
:1013D000AF909F908F900895B7CF82E091E0B4CF07
:1013E00060930201709303018093040190930501BF
:1013F0000895F999FECF92BD81BDF89A992780B5DD
:101400000895262FF999FECF1FBA92BD81BD20BD48
:101410000FB6F894FA9AF99A0FBE01960895052E20
:1014200097FB16F400940FD057FD05D024D007FC8D
:1014300002D046F408C050954095309521953F4F15
:101440004F4F5F4F089590958095709561957F4FB0
:101450008F4F9F4F089531D0A59F900DB49F900D51
:10146000A49F800D911D11240895B7FFF4CFF3DFE1
:10147000821B930B0895A1E21A2EAA1BBB1BFD0130
:101480000DC0AA1FBB1FEE1FFF1FA217B307E40763
:10149000F50720F0A21BB30BE40BF50B661F771FBB
:1014A000881F991F1A9469F760957095809590959B
:1014B0009B01AC01BD01CF010895A29FB001B39F74
:1014C000C001A39F700D811D1124911DB29F700D4D
:1014D000811D1124911D0895DB018F939F93BBDF24
:1014E000BF91AF91A29F800D911DA39F900DB29FC0
:1014F000900D11240895AA1BBB1B51E107C0AA1F20
:10150000BB1FA617B70710F0A61BB70B881F991FA4
:101510005A95A9F780959095BC01CD010895DC01FD
:1015200001C06D9341505040E0F70895F894FFCF0B
:1015300001FD01000000000102030405060708097F
:101540000A0B0C0D5C2000DC22001C24009C2600F1
:101550005C2800DC2A061C2C009C2E005C3000DC81
:1015600032001C34009C36005C3800DC3A001C3C25
:02157000000079
:00000001FF
